:1000000018C032C031C030C02FC02EC02DC02CC08F
:100010002BC0D9C029C028C027C026C025C024C0F5
:1000200023C07EC18BC1ADC1E2C117C237C263C25A
:1000300070C211241FBECFE5D1E0DEBFCDBF10E0FE
:10004000A0E6B0E0E4E0F7E002C005900D92A6362D
:10005000B107D9F710E0A6E6B0E001C01D92AD37B8
:10006000B107E1F70ED14CC3CBCFF89480959091B6
:100070007B00982390937B00789480E00895F89417
:1000800090917B008923982790937B007894089522
:10009000F894909178008923982790937800789429
:1000A0000895F89490917C0090958923E8DF7894E6
:1000B0000895EEDFE4DF0895DD9A8FE59AEEA0E083
:1000C00081509040A040E1F700C00000DD98A3ED12
:1000D000B0E31197F1F700C000000895D29ADA9AC0
:1000E000AFE1BEE41197F1F700C00000DA9882306A
:1000F000910589F48FE996E8A1E081509040A040F5
:10010000E1F700C00000DA9AAFE1BEE41197F1F721
:1001100000C00000DA98D2980895909168009F5F1F
:1001200090936800809169008F5F8093690080914F
:100130006A008F5F80936A00953660F090916B0043
:100140009F5F90936B0090916C009F5F90936C0009
:1001500010926800853050F110926A00CA9B0EC060
:1001600080916200813011F580936D0080916E0066
:100170008F5F80936E001092620018C080916D00B6
:100180008130A1F48093620010926D00809166002E
:10019000882361F087EA91E60197F1F700C000003B
:1001A0008091660090E09ADF1092660080916C006A
:1001B000873040F080916E0080936F0010926E0047
:1001C00010926C0008951F920F920FB60F92112497
:1001D0002F933F934F935F936F937F938F939F934F
:1001E000AF93BF93EF93FF9330917C0089B38095D9
:1001F00083279091600098239095909360002091C0
:100200006100282329272093610089238223282F36
:10021000232720937C00322F382390917B00932B4F
:1002200090937B0090917A00322F30953823392BB0
:1002300030937A0024FD03C084E6809367008091A8
:100240006700815080936700882349F484E180939C
:100250006700207180917800822B809378005DDFA9
:10026000FF91EF91BF91AF919F918F917F916F918E
:100270005F914F913F912F910F900FBE0F901F9064
:1002800018958AE08ABBD298D098B898D89AD69810
:10029000DE9AC09ADA988BB3857F8BBBDC98C2E07C
:1002A000C0BF85E083BF89E086BFC9BF82D1789493
:1002B000109274008FEF80936300109270008BB3E4
:1002C000857F8BBBB09903C0C093700003C081E0F1
:1002D0008093700083EC99E00197F1F700C0000073
:1002E000C1E08FE7782E88248A9493E0F92E26E0E7
:1002F000922E3CE3A32E4FEDB42E15E00EE15FEEFF
:10030000C52ED2E062E3D62E74E1E72EE0917000B4
:10031000F0E0E830F10508F01AC1EF5EFF4F0994F4
:100320008091630080FF03C08EEF80936300109282
:10033000690010926F00B099E9C020C080916300FD
:1003400081FF11C08BB3857F8BBB80E18EDED093A4
:10035000740010926900C093750068D110926F000C
:100360008DEF8093630080E19CDE882309F4EFC069
:10037000C89904C087E080937000E9C0D0937000F2
:10038000E6C08091630082FF14C0D99AD0927600B3
:10039000CE9902C0E0927600C09374008FE0809303
:1003A00077001092690010926B0028D18BEF809338
:1003B000630042D180917400882351F090916B00CA
:1003C00080917600891720F410927400C093700019
:1003D00080E167DE882329F01092740084E0809326
:1003E000700080916F00843008F4B1C08CC080919F
:1003F000630083FF08C0DB9A1092740080E135DE51
:1004000087EF8093630018D180E14BDE882369F089
:10041000F894C0936600789410937000009379006C
:10042000CE9903C08FE08093790080E142DE88237B
:1004300061F0F894D0936600789410937000D09295
:100440007900CE9902C0E092790080916F008230ED
:1004500008F07DC0109370001EC08091630084FF7F
:1004600007C0DB9A1092740080E1FFDDC092630048
:10047000E3D080E116DE882309F469C0F89481E0B6
:1004800090E02CDE78941093700083EC99E0019753
:10049000F1F700C000000093790059C0809163001B
:1004A00085FF0EC0C0937400A092770080E1DDDD6F
:1004B00010926F001092690010926B00B09263006E
:1004C00080E1EFDD882311F0F092700080E1F1DD32
:1004D000882311F0C0937000809174008823B9F1D3
:1004E00090916B0080917900891788F510927400C3
:1004F000909270002CC08092630080E1B6DD809104
:100500006F00843018F0F092700021C0C09370002A
:100510001EC08091630087FF0DC0D99ADB9A1092AC
:10052000740080E1A2DD1092690010926B00C4DDBE
:100530007092630080E1B5DD882311F0C0937000F4
:1005400080916F00833018F0B7DD10926F008091BA
:100550007400813021F0823009F0D8CE0CC0909127
:10056000690080917700981731F48BB398E0892760
:100570008BBB109269009091750080916900913059
:1005800061F48A3F09F0C2CE8BB398E089278BBB18
:100590001092690010927500B9CE833009F0B6CE82
:1005A0008BB398E089278BBB10926900C0937500CC
:1005B000ADCED59AD798B998BA9888B3866088BBDB
:1005C000DF9A10927100CF9915C081E0809371007D
:1005D0008FB580628FBD85E090E09BBD8ABD8EB5F2
:1005E00088618EBD8FB583608FBD8EB585608EBDF1
:1005F000619808951EBC1FBCDD980895CF9911C065
:1006000081E0809371008EB588618EBD8FB5836067
:100610008FBD8EB585608EBD8FB580628FBD6198B0
:1006200008951EBC1FBC1092710008951EBC1FBC13
:1006300081E080936400089580917100882309F41B
:100640005EC086B3867080937200809164008130B2
:1006500031F086B390917300981709F450C086B3B7
:1006600080937300109264008EB58E7F8EBD8EB520
:100670008D7F8EBD8EB58B7F8EBD80917200823056
:10068000E9F0833018F4882319F12EC0843061F02A
:10069000863051F58EB583608EBD88E09DE39BBDAD
:1006A0008ABD88E795E01DC08EB583608EBD8AE166
:1006B00096E09BBD8ABD8CE890E013C08EB5826049
:1006C0008EBD83EC99E09BBD8ABD8AEF90E009C0A6
:1006D0008EB582608EBD81EE94E09BBD8ABD8DE7B4
:1006E00090E099BD88BD08958EB583608EBD88E089
:1006F0009DE39BBD8ABD88E795E099BD88BD0895BF
:04070000F894FFCF9B
:06070400FFFF01FF0100F0
:00000001FF
