:1000000018C032C031C030C02FC02EC02DC02CC08F
:100010002BC0D9C029C028C027C026C025C024C0F5
:1000200023C01EC326C32EC336C33EC346C34EC31E
:1000300056C311241FBECFE5D1E0DEBFCDBF10E017
:10004000A0E6B0E0E0E1F7E002C005900D92A63630
:10005000B107D9F710E0A6E6B0E001C01D92AD37B8
:10006000B107E1F70ED152C3CBCFF89480959091B0
:100070007B00982390937B00789480E00895F89417
:1000800090917B008923982790937B007894089522
:10009000F894909178008923982790937800789429
:1000A0000895F89490917C0090958923E8DF7894E6
:1000B0000895EEDFE4DF0895DD9A8FE59AEEA0E083
:1000C00081509040A040E1F700C00000DD98A3ED12
:1000D000B0E31197F1F700C000000895D29ADA9AC0
:1000E000AFE1BEE41197F1F700C00000DA9882306A
:1000F000910589F48FE996E8A1E081509040A040F5
:10010000E1F700C00000DA9AAFE1BEE41197F1F721
:1001100000C00000DA98D2980895909168009F5F1F
:1001200090936800809169008F5F8093690080914F
:100130006A008F5F80936A00953660F090916B0043
:100140009F5F90936B0090916C009F5F90936C0009
:1001500010926800843050F110926A00CA9B0EC061
:1001600080916200813011F580936D0080916E0066
:100170008F5F80936E001092620018C080916D00B6
:100180008130A1F48093620010926D00809166002E
:10019000882361F087EA91E60197F1F700C000003B
:1001A0008091660090E09ADF1092660080916C006A
:1001B000863041F480916E0080936F0010926E0043
:1001C00010926C0008951F920F920FB60F92112497
:1001D0002F933F934F935F936F937F938F939F934F
:1001E000AF93BF93EF93FF9330917C0089B38095D9
:1001F00083279091600098239095909360002091C0
:100200006100282329272093610089238223282F36
:10021000232720937C00322F382390917B00932B4F
:1002200090937B0090917A00322F30953823392BB0
:1002300030937A0024FD03C084E6809367008091A8
:100240006700815080936700882349F484E180939C
:100250006700207180917800822B809378005DDFA9
:10026000FF91EF91BF91AF919F918F917F916F918E
:100270005F914F913F912F910F900FBE0F901F9064
:1002800018958AE08ABBD298D098D89AD698DE9AE8
:10029000DA988BB3857F8BBBDC9882E080BF95E0DA
:1002A00093BF99E096BF89BF6AD178941092740089
:1002B0008FEF8093630077247A94D2E085E0882ED4
:1002C000C1E09CE3E92E2FED922E3FE7A32E43E001
:1002D000B42E5FE0F52E6DEFC62E14E00EE179E14D
:1002E000D72E80917000833009F49BC0843040F495
:1002F000909163008130B9F1823008F05FC00AC08C
:10030000853009F4DEC0853008F4ADC0863009F0D0
:1003100004C1E5C090FF19C08BB3857F8BBB80E122
:10032000A4DED093740080E580937600CE9903C05C
:1003300084E18093760010926900C09375005DD1CE
:1003400010926F008EEF8093630080E1AADE882315
:1003500009F4E3C0C89904C086E080937000DDC052
:10036000C0937000DAC091FF0CC0D99A80937400DA
:10037000F09277001092690010926B0026D1C09223
:10038000630041D180917400882351F090916B00FB
:1003900080917600891720F41092740010927000FA
:1003A00080E17FDE882321F010927400B09270000B
:1003B00080916F00843008F4B0C08BC093FF08C0F8
:1003C000DB9A1092740080E150DE87EF8093630027
:1003D0001AD180E166DE882361F0F894C09366004C
:1003E00078941093700000937900CE9902C0F09237
:1003F000790080E15EDE882361F0F894D093660096
:10040000789410937000E0927900CE9902C0D09257
:10041000790080916F00823008F07FC010937000E7
:100420001FC08091630084FF08C0DB9A10927400A3
:1004300080E11BDE8FEE80936300E5D080E131DE4A
:10044000882309F46AC0F89481E090E047DE78944C
:100450001093700083EC99E00197F1F700C0000061
:10046000009379005AC08091630085FF0EC0C0934D
:100470007400E092770080E1F8DD10926F00109236
:10048000690010926B0090926300BDD080E109DE9C
:10049000882311F0D093700080E10BDE882311F0E7
:1004A00010927000809174008823B9F190916B00D4
:1004B00080917900891788F51092740080927000FD
:1004C0002CC07092630080E1D0DD80916F00843099
:1004D00018F0D093700021C0109270001EC080915F
:1004E000630087FF0DC0D99ADB9A1092740080E1F7
:1004F000BCDD1092690010926B00DEDDA0926300FB
:1005000080E1CFDD882311F01092700080916F00A0
:10051000833018F0D1DD10926F008091740081302B
:1005200021F0823009F0DDCE0CC0909169008091FD
:100530007700981731F48BB398E089278BBB109222
:1005400069009091750080916900913061F48A3F53
:1005500009F0C7CE8BB398E089278BBB1092690056
:1005600010927500BECE833009F0BBCE8BB398E0FD
:1005700089278BBB10926900C0937500B2CED59AC3
:10058000D798B898B998BA9888B3876088BBDF9A2B
:1005900010927100CF9915C081E0809371008FB5E2
:1005A00080628FBD85E090E09BBD8ABD8EB588617D
:1005B0008EBD8FB583608FBD8EB585608EBD619811
:1005C00008951EBC1FBCDD980895CF9911C081E02D
:1005D000809371008EB588618EBD8FB583608FBDAD
:1005E0008EB585608EBD8FB580628FBD6198089590
:1005F0001EBC1FBC1092710008951EBC1FBC81E080
:1006000080936400089580917100882309F47DC06F
:1006100086B397E0892780937200809164008130CF
:1006200031F086B390917300981709F46EC086B3C9
:1006300080937300109264008EB58E7F8EBD8EB550
:100640008D7F8EBD8EB58B7F8EBDE0917200F0E008
:10065000E830F10508F04EC0EF5EFF4F8EB509940B
:1006600084608EBD8AE49CE49BBD8ABD80ED97E0EA
:100670003EC084608EBD83E89EE19BBD8ABD8CEB4D
:1006800092E035C083608EBD88E09DE39BBD8ABD4E
:1006900088E795E02CC083608EBD84E39CE09BBD21
:1006A0008ABD8CE291E023C083608EBD8AE196E032
:1006B0009BBD8ABD8CE890E01AC082608EBD84EC40
:1006C00099E09BBD8ABD8AEF90E011C082608EBD2B
:1006D00081EE94E09BBD8ABD84E690E008C0816015
:1006E0008EBD87E893E19BBD8ABD84EF91E099BD03
:1006F00088BD08958EB583608EBD88E09DE39BBD67
:100700008ABD88E795E099BD88BD0895F894FFCF2C
:06071000FFFF01FF0100E4
:00000001FF
