:1000000018C032C031C030C02FC02EC02DC02CC08F
:100010002BC0E2C029C028C027C026C025C024C0EC
:1000200023C020C323C35EC32BC334C33DC346C315
:100030004FC311241FBECFE5D1E0DEBFCDBF10E01E
:10004000A0E6B0E0E2E3F7E002C005900D92A6362C
:10005000B107D9F710E0A6E6B0E001C01D92AE37B7
:10006000B107E1F717D163C3CBCFF8948095909196
:100070007C00982390937C00789480E00895F89415
:1000800090917C008923982790937C007894089520
:10009000F894909179008923982790937900789427
:1000A0000895F89490917D0090958923E8DF7894E5
:1000B0000895EEDFE4DF0895D29ADA9AAFE1BEE464
:1000C0001197F1F700C00000DA988230910589F4A9
:1000D0008FE996E8A1E081509040A040E1F700C090
:1000E0000000DA9AAFE1BEE41197F1F700C000001A
:1000F000DA98D2980895909168009F5F9093680075
:10010000809169008F5F8093690080916A008F5FA2
:1001100080936A00953660F090916B009F5F90939A
:100120006B0090916C009F5F90936C001092680040
:10013000C89919C080916D00813019F0843039F46C
:1001400004C085E080936E0002C010926E00809122
:100150006600882309F43FC08091660090E0ACDF20
:10016000109266000895843050F110926A00CA9B84
:100170000EC080916200813011F580936F008091F4
:1001800070008F5F809370001092620018C08091A1
:100190006F008130A1F48093620010926F00809113
:1001A0006600882361F087EA91E60197F1F700C0C5
:1001B00000008091660090E07FDF109266008091E1
:1001C0006C00863041F48091700080936E00109234
:1001D000700010926C0008951F920F920FB60F924C
:1001E00011242F933F934F935F936F937F938F933C
:1001F0009F93AF93BF93EF93FF9330917D0089B3AB
:10020000809583279091600098239095909360004B
:1002100020916100282329272093610089238223CC
:10022000282F232720937D00322F382390917C00A4
:10023000932B90937C0090917B00322F3095382344
:10024000392B30937B0024FD03C084E68093670044
:1002500080916700815080936700882349F484E18E
:1002600080936700207180917900822B80937900C0
:1002700042DFFF91EF91BF91AF919F918F917F915D
:100280006F915F914F913F912F910F900FBE0F9003
:100290001F9018958AE08ABBD298D098D89ADA989D
:1002A0008BB3857F8BBBDC9882E080BF95E093BFEA
:1002B00099E096BF89BF35D17894109276008FEF80
:1002C0008093630085E0782ED2E0C1E09CE3892E24
:1002D0002FED922E04E01EE13FEEA32EBB24BA9434
:1002E0004EEFC42E53E0D52E6FE0E62E7DEFF72EB5
:1002F00080916D00823009F459C0833030F4882336
:1003000071F0813009F0DBC026C0843009F49CC054
:10031000843008F478C0853009F0D1C0C3C0809122
:10032000630080FF10C08BB3857F8BBB80E19DDEB7
:10033000D093760010926900C093770037D1109265
:100340006E00C092630080E1ACDE882309F4B7C080
:10035000C0936D00B4C09091630091FF0CC0D99A16
:1003600080937600E09278001092690010926B0002
:1003700005D1F09263004AD180917600882341F044
:1003800080916B00813520F01092760010926D0004
:1003900080E187DE882321F010927600D0926D00F4
:1003A00080916E00843008F48AC084C0809163001C
:1003B00083FF08C0DB9A1092760080E156DE87EF5B
:1003C0008093630023D180E16CDE882341F0F894B0
:1003D000C0936600789400936D0010937A0080E1DA
:1003E00068DE882341F0F894D093660078940093F7
:1003F0006D0010937A0080916E00823008F05FC02B
:1004000000936D001EC08091630084FF07C0DB9ADB
:100410001092760080E129DEA0926300F7D080E19F
:1004200040DE882309F44BC0F89481E090E044DE7C
:10043000789400936D0083EC99E00197F1F700C088
:10044000000010937A003BC08091630085FF0EC0CE
:10045000C09376008092780080E107DE10926E00F3
:100460001092690010926B0090926300CFD080E1EF
:1004700018DE882311F0D0936D0080E11ADE882306
:1004800011F010926D00809176008823C1F0909158
:100490006B0080917A00891790F410927600709228
:1004A0006D000DC0B092630080E1DFDD80916E00D1
:1004B000843018F0D0936D0002C010926D008091CE
:1004C0007600813021F0823009F012CF0CC090917B
:1004D000690080917800981731F48BB398E08927F0
:1004E0008BBB1092690090917700809169009130E8
:1004F00061F48A3F09F0FCCE8BB398E089278BBB6F
:100500001092690010927700F3CE833009F0F0CE9C
:100510008BB398E089278BBB10926900C09377005A
:10052000E7CED59AD798B898B998BA9888B3876023
:1005300088BBDF9A10927100CF991CC081E0809334
:1005400071008FB580628FBD85E090E09BBD8ABD54
:100550008EB588618EBD8FB583608FBD8EB5856089
:100560008EBD619886B1826886B91C9887B1866015
:1005700087B908951EBC1FBCDD980895CF9911C09E
:1005800081E0809371008EB588618EBD8FB58360E8
:100590008FBD8EB585608EBD8FB580628FBD619831
:1005A00008951EBC1FBC1092710008951EBC1FBC94
:1005B00081E08093640008958EB585608EBD379A82
:1005C000369A3699FECF369A01C037983699FDCFC4
:1005D00044B155B1952F80E0242F30E0282B392BE2
:1005E00080917200909173002817390771F05BBDFC
:1005F0004ABD3BBD2ABDC9016AE070E084D079BD27
:1006000068BD30937300209372000895809171004B
:10061000882309F477C086B397E089278093740014
:1006200090916400913031F096B3209175002917B4
:1006300009F465C086B380937500109264008EB58E
:100640008E7F8EBD8EB58D7F8EBD8EB58B7F8EBD20
:10065000E0917400F0E0E830F10508F043C0EF5E8F
:10066000FF4F09941DBC1CBCA7DF08958EB58460A4
:100670008EBD84E89EE19BBD8ABD8CEB92E03BC0C1
:100680008EB583608EBD85E39CE09BBD8ABD8CE208
:1006900091E031C08EB583608EBD8AE196E09BBD4E
:1006A0008ABD8CE890E027C08EB582608EBD84EC58
:1006B00099E09BBD8ABD8AEF90E01DC08EB5826037
:1006C0008EBD82EE94E09BBD8ABD84E690E013C0AF
:1006D0008EB581608EBD88E893E19BBD8ABD84EFB5
:1006E00091E009C08EB583608EBD89E09DE39BBD1E
:1006F0008ABD88E795E099BD88BD3798089588231D
:1007000009F45ADF0895AA1BBB1B51E107C0AA1FB9
:10071000BB1FA617B70710F0A61BB70B881F991FA2
:100720005A95A9F780959095BC01CD010895F8944C
:02073000FFCFF9
:06073200FFFF01FF0100C2
:00000001FF
