:1000000018C032C031C030C02FC02EC02DC02CC08F
:100010002BC0D9C029C028C027C026C025C024C0F5
:1000200023C00BC313C31BC323C32BC333C33BC3A3
:1000300043C311241FBECFE5D1E0DEBFCDBF10E02A
:10004000A0E6B0E0EAEEF6E002C005900D92A6361A
:10005000B107D9F710E0A6E6B0E001C01D92AC37B9
:10006000B107E1F70ED13FC3CBCFF89480959091C3
:100070007A00982390937A00789480E00895F89419
:1000800090917A008923982790937A007894089524
:10009000F89490917700892398279093770078942B
:1000A0000895F89490917B0090958923E8DF7894E7
:1000B0000895EEDFE4DF0895DD9A8FE59AEEA0E083
:1000C00081509040A040E1F700C00000DD98A3ED12
:1000D000B0E31197F1F700C000000895D29ADA9AC0
:1000E000AFE1BEE41197F1F700C00000DA9882306A
:1000F000910589F48FE996E8A1E081509040A040F5
:10010000E1F700C00000DA9AAFE1BEE41197F1F721
:1001100000C00000DA98D2980895909168009F5F1F
:1001200090936800809169008F5F8093690080914F
:100130006A008F5F80936A00953660F090916B0043
:100140009F5F90936B0090916C009F5F90936C0009
:1001500010926800843050F110926A00CA9B0EC061
:1001600080916200813011F580936D0080916E0066
:100170008F5F80936E001092620018C080916D00B6
:100180008130A1F48093620010926D00809166002E
:10019000882361F087EA91E60197F1F700C000003B
:1001A0008091660090E09ADF1092660080916C006A
:1001B000863041F480916E0080936F0010926E0043
:1001C00010926C0008951F920F920FB60F92112497
:1001D0002F933F934F935F936F937F938F939F934F
:1001E000AF93BF93EF93FF9330917B0089B38095DA
:1001F00083279091600098239095909360002091C0
:100200006100282329272093610089238223282F36
:10021000232720937B00322F382390917A00932B51
:1002200090937A0090917900322F30953823392BB2
:100230003093790024FD03C084E6809367008091A9
:100240006700815080936700882349F484E180939C
:100250006700207180917700822B809377005DDFAB
:10026000FF91EF91BF91AF919F918F917F916F918E
:100270005F914F913F912F910F900FBE0F901F9064
:1002800018958AE08ABBD298D098D89AD698DE9AE8
:10029000DA988BB3857F8BBBDC9882E080BF95E0DA
:1002A00093BF99E096BF89BF57D17894109274009C
:1002B0008FEF8093630077247A94D2E085E0882ED4
:1002C000C1E00CE39FED992E2FE7A22E33E0B32E71
:1002D0004FE0C42E5DEFD52E14E06EE1E62E77EFF1
:1002E000F72E80917000833009F488C0843040F488
:1002F00090916300813079F1823008F055C00AC0D6
:10030000853009F4CBC0853008F49AC0863009F0F6
:10031000F1C0D2C090FF11C08BB3857F8BBB80E151
:10032000A4DED093740010926900C093750052D17E
:1003300010926F008EEF8093630080E1B2DE88231D
:1003400009F4D8C0C89904C086E080937000D2C078
:10035000C0937000CFC091FF0CC0D99A80937400F5
:10036000C09276001092690010926B001BD1D0925F
:10037000630036D180917400882341F080916B0036
:10038000813520F0109274001092700080E189DEB7
:10039000882321F010927400B092700080916F0059
:1003A000843008F4A7C082C093FF07C0DB9A109284
:1003B000740080E15ADEF092630012D180E171DEB8
:1003C000882341F0F894C0936600789410937000ED
:1003D000E092780080E16DDE882341F0F894D093BC
:1003E00066007894109370000093780080916F00FD
:1003F000823008F07FC0109370001FC080916300AE
:1004000084FF08C0DB9A1092740080E12EDE8FEE2C
:1004100080936300E5D080E144DE882309F46AC05C
:10042000F89481E090E05ADE78941093700083ECA9
:1004300099E00197F1F700C00000009378005AC0DE
:100440008091630085FF0EC0C09374000093760016
:1004500080E10BDE10926F001092690010926B0029
:1004600090926300BDD080E11CDE882311F0D09310
:10047000700080E11EDE882311F0109270008091E0
:1004800074008823B9F190916B00809178008917EE
:1004900088F510927400809270002CC070926300F6
:1004A00080E1E3DD80916F00843018F0D09370001C
:1004B00021C0109270001EC08091630087FF0DC0A4
:1004C000D99ADB9A1092740080E1CFDD1092690016
:1004D00010926B00F1DDA092630080E1E2DD8823E1
:1004E00011F01092700080916F00833018F0E4DDFD
:1004F00010926F0080917400813021F0823009F0F9
:10050000F0CE0CC09091690080917600981731F47C
:100510008BB398E089278BBB10926900909175008E
:1005200080916900913061F48A3F09F0DACE8BB393
:1005300098E089278BBB1092690010927500D1CE8C
:10054000833009F0CECE8BB398E089278BBB109215
:100550006900C0937500C5CED59AD798B898B99858
:10056000BA9888B3876088BBDF9A10927100CF99E0
:1005700015C081E0809371008FB580628FBD85E0EA
:1005800090E09BBD8ABD8EB588618EBD8FB58360BE
:100590008FBD8EB585608EBD619808951EBC1FBC51
:1005A000DD980895CF9911C081E0809371008EB5D8
:1005B00088618EBD8FB583608FBD8EB585608EBD21
:1005C0008FB580628FBD619808951EBC1FBC1092CC
:1005D000710008951EBC1FBC81E0809364000895E3
:1005E00080917100882309F47DC086B397E0892744
:1005F0008093720080916400813031F086B39091D5
:100600007300981709F46EC086B38093730010923C
:1006100064008EB58E7F8EBD8EB58D7F8EBD8EB5FE
:100620008B7F8EBDE0917200F0E0E830F10508F0BC
:100630004EC0EF5EFF4F8EB5099484608EBD8AE494
:100640009CE49BBD8ABD80ED97E03EC084608EBD7A
:1006500083E89EE19BBD8ABD8CEB92E035C0836050
:100660008EBD88E09DE39BBD8ABD88E795E02CC0E8
:1006700083608EBD84E39CE09BBD8ABD8CE291E0EB
:1006800023C083608EBD8AE196E09BBD8ABD8CE865
:1006900090E01AC082608EBD84EC99E09BBD8ABD5B
:1006A0008AEF90E011C082608EBD81EE94E09BBD28
:1006B0008ABD84E690E008C081608EBD87E893E142
:1006C0009BBD8ABD84EF91E099BD88BD08958EB52C
:1006D00083608EBD88E09DE39BBD8ABD88E795E081
:0A06E00099BD88BD0895F894FFCF7E
:0606EA00FFFF01FF01000B
:00000001FF
